:020000040800F2
:1000000000000220958E00086188000871880008B1
:100010008188000891880008A1880008000000007D
:10002000000000000000000000000000B18800088F
:10003000C188000800000000D1880008E18800089D
:10004000018F0008018F0008018F0008018F000850
:10005000018F0008018F0008018F0008018F000840
:10006000018F0008018F000831040008018F00088B
:10007000018F0008018F0008018F0008018F000820
:10008000018F0008018F0008018F0008018F000810
:10009000018F0008018F0008018F0008018F000800
:1000A000018F0008018F0008018F0008018F0008F0
:1000B000018F0008018F0008018F0008018F0008E0
:1000C000018F0008018F0008018F0008018F0008D0
:1000D000018F0008018F0008018F0008018F0008C0
:1000E000018F0008018F0008018F0008018F0008B0
:1000F000018F0008018F0008018F0008018F0008A0
:10010000018F000811210008018F0008018F0008ED
:10011000018F0008018F0008018F0008018F00087F
:10012000018F0008018F0008018F000815210008C9
:10013000018F0008018F0008018F0008018F00085F
:10014000018F0008018F0008018F0008018F00084F
:10015000018F0008018F0008018F0008018F00083F
:10016000018F0008018F0008018F0008018F00082F
:10017000018F0008018F0008018F0008018F00081F
:08018000018F0008018F000847
:1001C0000348044B834202D0034B03B118477047E6
:1001D0008804002088040020000000000548064B29
:1001E0001B1AD90F01EBA301491002D0034B03B135
:1001F0001847704788040020880400200000000091
:1002000010B5064C237843B9FFF7DAFF044B13B15E
:100210000448AFF300800123237010BD8804002040
:1002200000000000188F000808B5044B1BB10449FA
:100230000448AFF30080BDE80840CFE700000000AD
:100240008C040020188F0008A3F5803A704700BF87
:10025000154B002B08BF114B9D46FFF7F5FF002102
:100260008B460F461148124A121A00F0C3FE0C4B7F
:10027000002B00D098470B4B002B00D09847002054
:10028000002104000D000B4800F0C8FD00F0F0FD57
:100290002000290001F0A6FA00F0C6FD00000800C9
:1002A00000000000000000000000000088040020A2
:1002B000A4310120490E0008187B0108000000202D
:1002C0008804002088040020A431012000000000E0
:1002D00012EE90BA11EE902A10694FEA0020CBF886
:1002E0001400F9E7AFF30080AFF30080AFF30080B4
:1002F00040F20400C2F200001CEE901A4160704708
:1003000040F20400C2F2000081680CEE101A0CEEFC
:10031000901A7047AFF30080AFF30080AFF3008016
:100320001AEE900A40F29B41C0F6000110F0804F97
:1003300003D040F24D51C0F6000101EE101A704793
:10034000002000EE100A012000EE900A40F60000A6
:10035000C4F2020001EE900A042002EE100A40F2FC
:100360000000C4F2020002EE900A40F2A840C2F27D
:10037000000003EE100A43F60040C4F2010003EE51
:10038000900A40F22000C5F2555004EE100A40F2E7
:100390002000C0F2000004EE900A5FF480700BEEC3
:1003A000100A40F20000C1F2000007EE100A00201F
:1003B0000AEE900A002006EE900A06EE100A05EEFC
:1003C000900A7047AFF30080AFF30080AFF3008076
:1003D000042007EE900A00200CEE100A0CEE900AA2
:1003E00000200DEE100A00200DEE900A00200EEE07
:1003F000900A00200FEE900A0AEE100A00200BEE81
:10040000900A1AEE900A50F000400AEE900A01207D
:1004100005EE900A06EE100A002006EE900A7047DC
:100420001AEE900A6FF3DF700AEE900A704700BF71
:100430000FEE10BA12EE90BA11EE902A13EE903A27
:1004400010205861116911F0010FFBD0D2F810088B
:100450001169D2F810C48B07C0F0268100F1178112
:1004600011F0080F04BF11EE103A184713EE103ABE
:100470006FF39F301B5C190214EE100AC2F81414BB
:10048000C2F8000411EE103A14EE901A106910F040
:10049000010FFBD1C2F800141847BFF34F8F17EEBE
:1004A000900A81231AF0804F1EBF4FF0000A06EE1B
:1004B000103A20F0010007EE900A16EE90CA15EEF1
:1004C000901A4FEA9C1011F07F03013B08BFC80946
:1004D00048BF002360F3861C63F3060105EE901A03
:1004E00016EE101A4FEADC1011F07F03013B08BF33
:1004F000C80948BF002360F3C71C63F3060106EE7A
:10050000101A06EE90CA63461AEE90CA16EE903A9A
:1005100013F0400F18BF43F4005313F4025313F0C9
:10052000800F08BF2CF0800C1CF0200F14BF83F04C
:10053000800343F080031CF0800F08BF43F4005396
:1005400053610AEE90CA1FEE10BA7047BFF34F8F87
:1005500017EE900A81231AF0804F1EBF4FF0000A59
:1005600006EE103A20F0010007EE900A16EE90CA4F
:1005700015EE901A4FEA9C1011F07F03013B08BF63
:10058000C80948BF002360F3861C63F3060105EE2B
:10059000901A16EE101A4FEADC1011F07F03013B9F
:1005A00008BFC80948BF002360F3C71C63F30601F6
:1005B00006EE101A06EE90CA63461AEE90CA13F0C1
:1005C000C0031CF0200F14BF83F0800343F08003AE
:1005D00053F4005353611FEE10BA7047BFF34F8FAF
:1005E00017EE900A81231AF0804F1EBF4FF0000AC9
:1005F00006EE103A20F0010007EE900A16EE90CABF
:1006000015EE901A4FEA9C1011F07F03013B08BFD2
:10061000C80948BF002360F3861C63F3060105EE9A
:10062000901A16EE101A4FEADC1011F07F03013B0E
:1006300008BFC80948BF002360F3C71C63F3060165
:1006400006EE101A06EE90CA63461AEE90CA16EE2F
:10065000903A13F0400F18BF43F4005313F40253C1
:1006600013F0800F08BF2CF0800C1CF0200F14BF7B
:1006700083F0800343F080031CF0800F08BF43F435
:10068000005353610AEE90CA1FEE10BA704711EE84
:10069000103A1AEE900A10F0004F18BF1847506930
:1006A00080F040005061184710F01F0011F0080F53
:1006B00018BF40F020001AEE903A13F0804F18BF98
:1006C00040F04000DFE810F0F802F802F802F8020B
:1006D000F802F802F802F8024B0177028802990248
:1006E00048014801480148011703480148014801F1
:1006F00028032803350348014801480148014801FF
:1007000048014801480148018000800080008000C5
:100710008000800080008000830020013401B2004E
:1007200080008000800080004B0380006C036C031D
:1007300080008000850380008000800080008000B1
:1007400080008000800080004B01770288029902BF
:100750004801480148014801F802F802F802F8028D
:10076000F802F802F802F8021703480148014801AC
:10077000280328033503480148014801480148017E
:100780004801480148014801830020013401B200BA
:100790008000800080008000800080008000800059
:1007A00080008000800080004B0380006C036C039D
:1007B0008000800085038000800080008000800031
:1007C000800080008000800011EE103A184717EE7C
:1007D000901A1AEE900A10F0804F02D010F0010F1C
:1007E00001E010F0060F18BF41F080011EEE900AE4
:1007F00010F0800F14BF01F0C30181F0020107EE79
:10080000901A090214EE100AC2F81414C2F8000477
:10081000012306EE103A11EE103A14EE901A106908
:1008200010F0010FFBD1C2F80014184740F2A840A5
:10083000C2F201001AEE903A13F4807F18BF00F55F
:1008400090501BEE903A00211FEE90CABCF1000FB1
:1008500019BFC15C4FF0B10C1DEE901A4FF0010CA6
:100860000DEE901A090214EE100AC2F81414C2F820
:10087000000416EE903A33F0400306EE903A1EEE76
:10088000900A10F0800F04D0D02802D0634605EE05
:10089000903A1FEE90CABCF1000F2AD01BEE903A9E
:1008A0001FEE90CA0133BCF1010C0BEE903A1DEE25
:1008B000103A0FEE90CA4FF0FF001CEA000F0DEE49
:1008C000103ABCF1000F14D117EE90CA3CF0030CA3
:1008D00007EE90CA5FF0010C05EE90CA1AEE903A4E
:1008E00013F0804F0CBF4FF0840C4FF0B10C06EEAC
:1008F00010CA11EE103A14EE901A106910F0010FA0
:10090000FBD1C2F8001418471CEE101A090214EEAD
:10091000100AC2F81414C2F8000411EE103A14EED2
:10092000901A106910F0010FFBD1C2F8001418479B
:100930001DEE101A090214EE100AC2F81414C2F8BF
:10094000000411EE103A14EE901A106910F0010F25
:10095000FBD1C2F80014184711EE103A1847D2F82C
:100960001014090A084610F0F000D02820D15FF0DA
:10097000000C0FEE90CA0EEE900A17EE900A10F0DF
:10098000010F04D030F0010007EE900A07E00020CC
:100990001CEE903A002B08BF042007EE900A11F0DD
:1009A000080F1CBF812006EE100A11EE103A1847FE
:1009B000012306EE103A05EE903A17EE90CA1CF0AD
:1009C000010F02D011EE103A18475FF0000C07EE4D
:1009D00090CA0EEE901A0009DFE810F0130025000F
:1009E0003A003A003A003A003A003A007A007A00B7
:1009F000B200B200EA0010001000100011EE103A30
:100A0000184740F20403C2F200034FF0010183EDE6
:100A1000010A8A4617EE90CA5CF0010C07EE90CAF4
:100A200011EE103A1847F0EE40FA1DEE900A40F22F
:100A30000403C2F200034FF0010158608A4617EE2A
:100A400090CA5CF0010C07EE90CA11EE103A1847FC
:100A500011F0400F09D131F020011AEE90CA1CF0BC
:100A6000800F18BF41F020010AE01AEE90CA13F07F
:100A7000200F14BF4CF0800C2CF0800C0AEE90CAB2
:100A80001CEE900A1CF0010F0AD111F0200F14BFC8
:100A90000138013010F0004F18BF00200CEE900A12
:100AA00011F0100F18BF0CEE100A022107EE901A79
:100AB00040F20403C2F20003012158608A4617EE97
:100AC00090CA5CF0010C07EE90CA11EE103A18477C
:100AD00016EE903A33F0400306EE903AB12305EE5D
:100AE000903A00201AEE90CA11F0020F14BF4CF495
:100AF000807C2CF4807C0AEE90CA1DEE10CABCF1FA
:100B0000010C48BF4FF0000C5FEA0C2C10EB0C00FE
:100B10000BEE900A5FF4807011F0100F05D00820E2
:100B20001DEE103AC01A013000020FEE900A17EEC7
:100B3000900A50F0030007EE900A11EE103A1847A1
:100B400016EE903A33F0400306EE903AB12305EEEC
:100B5000903A00201AEE90CA11F0020F14BF4CF424
:100B6000807C2CF4807C0AEE90CA1DEE10CABCF189
:100B7000010C48BF4FF0000C5FEA0C2C10EB0C008E
:100B80000BEE900A5FF4807011F0100F05D0082072
:100B90001DEE103AC01A013000020AEE100A17EEDC
:100BA000900A50F0030007EE900A11EE103A184731
:100BB00011EE103A1847D2F81014090A17EE900AED
:100BC00010F0010F08BF0CEE101A11EE103A106968
:100BD00010F0010FFBD11847D2F81014090A17EED4
:100BE000900A10F0010F08BF0DEE101A11EE103A26
:100BF000106910F0010FFBD118475FEA1C2116EEB7
:100C0000903A33F0400306EE903A1EEE90CA1CF084
:100C1000800F06D0BCF1D00F03D05FF0B10C05EE11
:100C200090CA0DEE901A1AEE10CABCF1000F02D154
:100C300011EE103A184740F2A840C2F201001AEE35
:100C4000903A13F4807F18BF00F590501BEE903A55
:100C5000C1540133BCF1010C0BEE903A1DEE103A79
:100C60000AEE10CA4FF0FF001CEA000F08BF13F194
:100C700001030DEE103ABCF1000F1AD117EE90CA25
:100C80003CF0030C07EE90CA5FF0010C05EE90CA31
:100C90001AEE903A13F0804F0CBF4FF0910C4FF0CA
:100CA000910C06EE10CA40F64050C0F203005A49BB
:100CB000086011EE103A1847D2F81014090A1AEE1B
:100CC00090CA1CF0804F04D02CF03F0C01F03F0183
:100CD0000AE02CF0FF0C01F0FF0111F0400F14BFEF
:100CE00041F4807121F480714CEA010C0AEE90CA43
:100CF00011EE103A1847D2F81014090A11F0800FBB
:100D000002D04FF0030A04E011F0400F01D04FF081
:100D1000040A11EE103A1847D2F81014090A40F2EA
:100D20001803C2F2000310F00100195411EE103A3A
:100D30001847D2F81014090A002040F21803C2F232
:100D40000003186844F2000CC1F2000C0CF800100B
:100D500001306FF39F30186011EE103A1847802170
:100D60001AEE900A10F0804F18BF41F040011AF0BF
:100D7000005F03D06FF3C7115FF0000A090214EEA1
:100D8000100AC2F81414C2F8000411EE103A14EE5E
:100D9000901A106910F0010FFBD1C2F80014184727
:100DA00040F21403C2F2000310F00100195C0902C2
:100DB00014EE100AC2F81414C2F8000411EE103A2E
:100DC00014EE901A106910F0010FFBD1C2F8001454
:100DD0001847002040F21803C2F20003186844F2DA
:100DE000000CC1F2000C00211CF8001001306FF360
:100DF0009F301860090214EE100AC2F81414C2F8E9
:100E0000000411EE103A14EE901A106910F0010F60
:100E1000FBD1C2F80014184710000020002301463F
:100E20001A46184600F0C8BB08B50021044600F079
:100E3000F7FB044B1868C36B03B19847204600F0DA
:100E400047FC00BFDC8F000838B5074D074C2C1B52
:100E5000A41005D0013C55F8043D9847002CF9D169
:100E6000BDE8384008F060B8187B0108147B010821
:100E700070B50F4B0F4DAB42A3EB050607D0B61074
:100E8000002455F8043B01349847A642F9D808F0ED
:100E900045F8094D094B5E1BAB424FEAA60606D04A
:100EA000002455F8043B01349847A642F9D870BD98
:100EB0000C7B01080C7B01080C7B0108147B0108EA
:100EC000844641EA000313F003036DD1403A41D355
:100ED00051F8043B40F8043B51F8043B40F8043B14
:100EE00051F8043B40F8043B51F8043B40F8043B04
:100EF00051F8043B40F8043B51F8043B40F8043BF4
:100F000051F8043B40F8043B51F8043B40F8043BE3
:100F100051F8043B40F8043B51F8043B40F8043BD3
:100F200051F8043B40F8043B51F8043B40F8043BC3
:100F300051F8043B40F8043B51F8043B40F8043BB3
:100F400051F8043B40F8043B51F8043B40F8043BA3
:100F5000403ABDD2303211D351F8043B40F8043B43
:100F600051F8043B40F8043B51F8043B40F8043B83
:100F700051F8043B40F8043B103AEDD20C3205D353
:100F800051F8043B40F8043B043AF9D2043208D04B
:100F9000D2071CBF11F8013B00F8013B01D30B88BD
:100FA00003806046704700BF082A13D38B078DD09B
:100FB00010F003038AD0C3F10403D21ADB071CBF6D
:100FC00011F8013B00F8013B80D331F8023B20F8D7
:100FD000023B7BE7043AD9D3013A11F8013B00F810
:100FE000013BF9D20B7803704B7843708B78837098
:100FF00060467047830730B547D0541E002A3ED064
:10100000CAB2034601E0013C39D303F8012B9D0726
:10101000F9D1032C2CD9CDB205EB05250F2C05EB0E
:10102000054535D9A4F1100222F00F0C03F1100E82
:10103000E6444FEA121C1A46156055609560D5606B
:1010400010327245F8D10CF1010214F00C0F03EBD1
:10105000021204F00F0C13D0ACF1040323F00303CD
:101060000433134442F8045B9A42FBD10CF00304AE
:101070002CB1C9B21C4403F8011B9C42FBD130BD0A
:1010800064461346002CF4D1F9E703461446C0E742
:101090001A46A446E0E700BF830710B5044610D106
:1010A0000268A2F1013323EA020313F0803F08D162
:1010B00050F8042FA2F1013323EA020313F0803F1A
:1010C000F6D003781BB110F8013F002BFBD100F0E4
:1010D00075F9204610BD00BF0000000000000000B0
:1010E000A2EB0300704700BF02780B78012A28BFEB
:1010F0009A42F5D16DE9044540EA0104CDE9026761
:101100006FF0000C4FEA447212B380EA010414F04D
:10111000070F6AD100F0070420F0070004F0030570
:1011200021F007014FEAC505F0E8042314F0040F8D
:10113000F1E804670CFA05F462EA040266EA0406C0
:101140000AD063EA0403624667EA0407664603E0DE
:10115000F0E80423F1E8046782FA4CF582EA060419
:10116000A4FA8CF46CBB83FA4CF583EA0705A5FA64
:101170008CF595B950E9022351E9026782FA4CF5E2
:1011800082EA0604A4FA8CF483FA4CF583EA070594
:10119000A5FA8CF52543DBD09CB92DBAB5FA85F4B8
:1011A00024F0070427FA04F1DDE9026723FA04F3C7
:1011B00003F0FF0001F0FF01FDE80445A0EB010092
:1011C000704724BAB4FA84F424F0070426FA04F130
:1011D000DDE9026722FA04F202F0FF0001F0FF01EC
:1011E000FDE80445A0EB0100704714F0030F3CD16B
:1011F00010F0030428D150F8082B51F8083B82FA6C
:101200004CF582EA0305A5FA8CF55DB950F8042C7B
:1012100051F8043C82FA4CF582EA0305A5FA8CF5F4
:10122000002DE8D02DBAB5FA85F424F0070423FA8E
:1012300004F122FA04F202F0FF0001F0FF01FDE8E0
:101240000445A0EB010070474FEAC40420F00300FE
:1012500050F8082B21F0030151F8083B0CFA04F474
:1012600062EA040263EA0403C9E710F003041AD037
:10127000A1EB040120F00300E40750F8042B06D092
:101280000FD28B785FFAA2F4E41A06D12BB1CB7897
:101290005FFAB2F4E41A00D11BB920465DF8104B96
:1012A000704701F1040150F8042BCC0721F0030131
:1012B00051F8043B48D824D222F07F4482FA4CF5FE
:1012C00094EA1325A5FA8CF50AD165B951F8043BC7
:1012D00084EA0204B4EB036F0ED150F8042BEBE761
:1012E0004FEA132355E035F07F454DD10878FDE8EE
:1012F0000445C0F1000070474FEA126203F0FF039B
:1013000047E002EA1C4482FA4CF594EA1345A5FA38
:101310008CF50AD165B951F8043B84EA0204B4EBB8
:10132000034F0CD150F8042BEBE74FEA134330E0A6
:1013300015EA1C4528D10B884FEA124229E04FEAF2
:10134000124203EA1C4324E002F0FF0482FA4CF547
:1013500094EA1365A5FA8CF50AD165B951F8043BF6
:1013600084EA0204B4EB032F09D150F8042BEBE715
:101370004FEA13630DE015F0FF0F05D10B684FEA3C
:10138000122223F07F4304E04FF00000FDE8044503
:10139000704712BA1BBA82FA4CF482EA0304A4FA28
:1013A0008CF5B5FA85F402FA04F203FA04F34FEA75
:1013B0001260FDE80445A0EB1360704780EA01026B
:1013C000844612F0030F4FD111F0030F32D14DF8C4
:1013D000044D11F0040F51F8043B0BD0A3F101327E
:1013E0009A4312F0803F04BF4CF8043B51F8043B91
:1013F00016D100BF51F8044BA3F101329A4312F009
:10140000803FA4F101320BD14CF8043BA24312F00F
:10141000803F04BF51F8043B4CF8044BEAD023460C
:101420000CF8013B13F0FF0F4FEA3323F8D15DF8BE
:10143000044B704711F0010F06D011F8012B0CF886
:10144000012B002A08BF704711F0020FBFD031F8FE
:10145000022B12F0FF0F16BF2CF8022B8CF8002085
:1014600012F47F4FB3D1704711F8012B0CF8012B08
:10147000002AF9D1704700BF000000000000000002
:1014800090F800F06DE9024520F007016FF0000CC4
:1014900010F0070491F820F040F049804FF000046C
:1014A0006FF00700D1E9002391F840F000F1080047
:1014B00082FA4CF2A4FA8CF283FA4CF3A2FA8CF37F
:1014C0004BBBD1E9022382FA4CF200F10800A4FAE6
:1014D0008CF283FA4CF3A2FA8CF3E3B9D1E904233A
:1014E00082FA4CF200F10800A4FA8CF283FA4CF371
:1014F000A2FA8CF37BB9D1E9062301F1200182FA2B
:101500004CF200F10800A4FA8CF283FA4CF3A2FA30
:101510008CF3002BC6D0002A04BF04301A4612BA3E
:10152000B2FA82F2FDE8024500EBD2007047D1E941
:10153000002304F00305C4F100004FEAC50514F0D0
:10154000040F91F840F00CFA05F562EA05021CBFA1
:1015500063EA050362464FF00004A9E73AB330B5E9
:101560000244144D044605E0BCEB030C1DD1CBB185
:10157000944218D014F8010B2B5C03F00303012BE9
:1015800011F8013B15F803E00EF0030E844608BF86
:1015900000F1200CBEF1010F1846E5D12033BCEB61
:1015A0000300E5D030BD002030BD604630BD1046A0
:1015B000704700BFE18F000870B4184C2568D5F85B
:1015C00048411CB365681F2D25DC38B9AB1C0135BB
:1015D000656044F82310002070BC704704EB850C54
:1015E0000228CCF88820D4F888614FF0010202FA72
:1015F00005F246EA0206C4F88861CCF80831E5D164
:10160000D4F88C311343C4F88C31DFE705F5A674A8
:10161000C5F84841D6E74FF0FF30DDE7DC8F000822
:101620002DE9F04F294B1F6883B0D7F8486101902E
:10163000B6B18B464FF001084FF000097468651E83
:101640000ED4013406EB8404BBF1000F0BD0D4F8A8
:1016500000315B4507D0013D6B1CA4F10404F3D1BC
:1016600003B0BDE8F08F73682268013BAB420CBF4A
:101670007560C4F80090002AEDD0D6F88801D6F83D
:1016800004A008FA05F101420BD190477268524557
:1016900012D1D7F84831B342DDD01E46002ECDD14D
:1016A000DEE7D6F88C0101420BD1D4F88010019806
:1016B000904772685245ECD0D7F84861002EBDD1F2
:1016C000CEE7D4F880009047E0E700BFDC8F000849
:1016D000FEE700BF00B583B031238DF8043003234B
:1016E0008DF8053000238DF8063001238DF8073082
:1016F00001AB184602F0A8FB3B238DF8043004230D
:101700008DF8053001AB184602F09EFB00BF03B018
:101710005DF804FB00B589B003900291019200933B
:10172000029B0A9A02FB03F3009A1344059305995E
:10173000039804F007FB03468DF81F309DF81F3017
:10174000002B0AD104AB4FF410520199039804F016
:10175000B1F803468DF81F3011E00023069307E02F
:10176000019A069B134400221A70069B01330693CC
:10177000069BB3F5905FF3D300238DF81F309DF8DF
:101780001F30184609B05DF804FB00BF00B589B0F2
:101790000390029101920093029B0A9A02FB03F3C9
:1017A000009A134406930699039804F0CBFA034673
:1017B0008DF81F309DF81F30002B09D105AB0A9A18
:1017C0000199039804F042F903468DF81F3003E0B5
:1017D00040F6B83000F094FE9DF81F30184609B06E
:1017E0005DF804FB10B5ADF54C7D9C4BC39300F048
:1017F000F9FBFEF7A5FD4FF0000A042000F00CFCF9
:1018000001214FF4801001F033FA00F007FD00F0E1
:101810001BFD00F0DDFC00F02DFD00F045FD00F0AB
:1018200063FC0023C5930DE08D4B1B6903F020037F
:10183000002B02D0C59B013300E00023C59302209A
:1018400000F04CFEC59B132BEED902F081FB854BBB
:101850001B6903F01003002B17D00FAB824A92E8EC
:10186000030018600433198002330A0C1A7013AB9A
:101870007E4A1C4613460FCB07C423801AEE900AFB
:1018800040F080400AEE900A13E00FAB784A92E8ED
:10189000030018600433198013AB764A1C461346C4
:1018A0000FCB07C423701AEE900A20F080400AEE96
:1018B000900AFEF735FD704B5B6C6F4A43F4804332
:1018C00053646E4B1B6A6D4A43F00103136200BF01
:1018D0006A4B1B6A03F48073002BF9D04FF44070FD
:1018E00002F0A8FA664B00221A60FFF7F3FE00F040
:1018F00013FC00F04BFC4FF40D7200216148FFF720
:1019000079FB002260495F4803F0AAFE03461A46AD
:101910005E4B1A705D4B1B78002B02D0FA2000F052
:10192000EFFDFEF755FDFEF7E3FC0FAA03AB1146F2
:10193000184604F0BDFA03461A46544B1A70534B2E
:101940001B78002B02D0642000F0DAFD0123C8933D
:101950000023C9934FF0FF33C6934D494D4800F023
:101960000BFE03461A46494B1A70484B1B78002B56
:1019700001D10023C89337AB4FF40A7200211846F7
:10198000FFF738FB0023C793364B1B69C293344BD8
:101990001B6903F02003002B01D00023C793C29BD7
:1019A00003F00403002B08D0C29B03F00803002BB4
:1019B00003D0C89B002B00F031810023C893C99B42
:1019C000002B40F02B81C29B03F00803002B65D154
:1019D000C69B002B28DD03AB184604F0A3FA034690
:1019E0001A462A4B1A700FAA03AB1146184604F088
:1019F0005FFA03461A46254B1A700023C4930BE086
:101A000003AB2549184604F0A5FA03461A461F4BB6
:101A10001A70C49B0133C493C69BC49A9A42EFD3F5
:101A2000C69B013BC69366E003AB184604F07AFA06
:101A30000FAA03AB1146184604F03AFA03461A46B9
:101A4000124B1A7003AB1449184604F083FA03468C
:101A50001A460E4B1A700023C6934CE0A8280120AA
:101A60000008024000000240588F0008608F000804
:101A7000708F0008788F000800380240003801405D
:101A800010E000E0D4290120888F0008502D0120AB
:101A9000A80400208C8F0008B4280120C69B0133C5
:101AA000C69303ABA949184604F054FA03461A46F4
:101AB000A74B1A70A64B1B78002B03D1A34B9B7D21
:101AC000002B18D103AB184604F02CFA0FAA03AB75
:101AD0001146184604F0ECF903461A469C4B1A705E
:101AE00003AB9A49184604F035FA03461A46984B58
:101AF0001A700023C6930FAA17AB11461846FFF7BA
:101B00005DFC17AB1846FFF7BBFC03461A4617AB44
:101B1000134490491A460B461B88138017AB8E4915
:101B20001846FFF7B9FA8D4B1B6903F02003002B11
:101B30000CD1C29B03F00803002B03D1C79B0133D8
:101B4000C79303E0C79B03F58063C793C79B002B34
:101B50004BD18349804800F0F7FC0346002B06D1A7
:101B600080497D4800F0F0FC0346002B3DD0CCAB13
:101B7000A3F515739B88002B0AD037AB184604F0E9
:101B8000CFF837AB4FF40A7200211846FFF732FA4C
:101B900013AB7549184600F0EFFC17A937ABC39A91
:101BA000184600F097FBC39B09331B781A4613466F
:101BB000DB0013445B02CB936C4ACB9B1360C39B4B
:101BC00002331B781A46C39B03331B781B02134452
:101BD000CA93674ACA9B13604FF0050A1AEE900A2F
:101BE00040F000400AEE900A16E0C79B40F2014226
:101BF000934206D15C495F4800F0BEFC0023C793C6
:101C000004E017AB5849184600F0B6FC1AEE900AEB
:101C100020F000400AEE900A574BC993C99B012B54
:101C2000B8BF0123013BC9935346B3F1805F80F0F5
:101C300076815346DBB2002B00F071815346DBB254
:101C4000013B042B00F26B8101A252F823F000BF8C
:101C5000651C00081F1F0008291D0008951D0008AD
:101C6000651C0008534643F000439A46434B1B68EB
:101C7000002B3BD0414B00221A60CCABA3F515736F
:101C80009B88002B0AD037AB184604F049F837ABD5
:101C90004FF40A7200211846FFF7ACF917A937ABC9
:101CA0000222184603F004FD03461A46284B1A7018
:101CB000334B196837A8CB9B0093CA9B314AFFF777
:101CC00065FD37AB184604F02BF837AB4FF40A72BA
:101CD00000211846FFF78EF917A937AB01221846E5
:101CE00003F0E6FC03461A46194B1A70264B196896
:101CF00037A8CB9B0093CA9B224AFFF70BFD01201C
:101D000000F0F4FB204B1B681D4A1360FEF7F8FA45
:101D10005346DBB2012B04D1534643F080439A462D
:101D2000FDE04FF0000AFAE0534643F000439A46C4
:101D30000FAB1649184600F055FC0346144A1360D1
:101D4000534643F000539A46E9E000BFB42801200F
:101D5000502D0120988F0008CA2801200008024059
:101D60009C8F0008A48F0008A8040020582D012093
:101D7000542D01208C8F0008C0C62D0010000020BB
:101D80000C000020A80401200800002000410010E1
:101D900014000020534643F000439A46844BC193FD
:101DA0000023C69303AB184604F0BCF803461A465A
:101DB000804B1A700FAA03AB1146184604F078F84E
:101DC00003461A467B4B1A7003AB7B49184604F056
:101DD000C1F803461A46774B1A70764B1B78002BD6
:101DE00003D1754B9B7D002B19D103AB184604F032
:101DF00099F80FAA03AB1146184604F059F80346A8
:101E00001A466C4B1A7003AB6B49184604F0A2F8E3
:101E100003461A46674B1A700023C6930BE0C1991C
:101E20006648FFF761F90346002B03D0C69B0133D8
:101E3000C693C9E700BF0FAA17AB11461846FFF7B4
:101E4000BDFA17AB1846FFF71BFB03461A4617AB44
:101E500013445B491A460B461B88138017AB57493E
:101E60001846FFF719F95749544800F06DFB03462F
:101E7000002B06D15449514800F066FB0346002B65
:101E80003DD0CCABA3F515739B88002B0AD037ABA4
:101E9000184603F045FF37AB4FF40A72002118468D
:101EA000FFF7A8F813AB4949184600F065FB17A9DE
:101EB00037ABC39A184600F00DFAC39B09331B7861
:101EC0001A461346DB0013445B02CB93404ACB9B7C
:101ED0001360C39B02331B781A46C39B03331B78E2
:101EE0001B021344CA933B4ACA9B13604FF0050A76
:101EF0001AEE900A40F000400AEE900A0AE017AB92
:101F00003249184600F038FB1AEE900A20F00040E3
:101F10000AEE900A534643F080539A4600BF2E4B78
:101F20001B68002B3FF430AD2B4B1B68013B2A4A4A
:101F30001360294B1B68002B7FF426ADCCABA3F5B7
:101F400015739B88002B0AD037AB184603F0E8FEC8
:101F500037AB4FF40A7200211846FFF74BF817A968
:101F600037AB0222184603F0A3FB03461A46114B77
:101F70001A701A4B196837A8CB9B0093CA9B184A52
:101F8000FFF704FC37AB184603F0CAFE37AB4FF43B
:101F90000A7200211846FFF72DF817A937AB012266
:101FA000184603F085FB03461A46024B1A70EBE411
:101FB00000400010502D0120B4280120CA28012023
:101FC000988F00089C8F0008A48F0008A8040020A8
:101FD000582D0120542D0120100000200C0000205D
:101FE000A8040120DFF82800016841F470010160B5
:101FF000BFF34F8FBFF36F8FDFF8180001686FF3E7
:102000009F710160BFF34F8FBFF36F8F7047000068
:1020100088ED00E034EF00E0F0B5304C8FB00EAB4F
:1020200003EB800706460FCC02AD0FC594E8030012
:1020300004F1080E85E80300BEE80F000DF1200C46
:10204000ACE80F009EE803008CE8030057F8304C22
:1020500057F8185C00F0C4FC012000F0DBFC00F035
:10206000E1FC08B90FB0F0BD6200022308214FF473
:102070008000009500F01AFD012000F029FD184AAB
:1020800013689B01FCD5022000F052FD002000F0F7
:1020900061FD144B40F20562052E1A6009D8012E2D
:1020A0000CD94FF4A05000F05FFD4FF4805000F0C9
:1020B00065FD0FB0BDE8F04000F0D8B93EB14FF477
:1020C000805000F051FD002000F058FDF1E730464F
:1020D00000F04AFD304600F051FDEAE7AC8F000801
:1020E00000380240003C024008B501214FF4802036
:1020F00000F0BEFD01214FF0805000F0DDFD012019
:1021000000F0B6FEBDE80840012000F0CDBE00BFE3
:1021100006F030BB06F084BB00B5012183B04FF45C
:10212000804000F0D5FD0021022000F02FFF0123A8
:1021300040F60442684600938DF80630ADF804205E
:1021400000F0B0FA03B05DF804FB00BF00B5012158
:1021500085B04FF4804000F0BBFD0021022000F06C
:1021600015FF01234FF4006202A802938DF80E3090
:10217000ADF80C2000F096FA034B019301A801F092
:1021800063FE05B05DF804FB0600000100B5012107
:1021900085B04FF4804000F09BFD0421022000F048
:1021A000F5FE1021012202A84FF4006302918DF880
:1021B0000E20ADF80C3000F075FA044B019301A825
:1021C00001F042FE05B05DF804FB00BF0A0000010B
:1021D00010B5104C82B00121042000F049FD694681
:1021E00020463F224FF44073CDE9002300F05CFB12
:1021F000E368094A43F00203E36069464FF403537E
:102200002046CDE9003200F04FFB4FF402536361EA
:1022100002B010BD000802400103010100B5012118
:1022200083B0082000F024FD4FF47F424FF4407348
:1022300004486946CDE9002300F036FB03B05DF8A1
:1022400004FB00BF000C024000B5012183B0102048
:1022500000F00EFD054B06484FF6FF726946CDE9CA
:10226000002300F021FB03B05DF804FB0003000233
:102270000010024000B5012183B0084600F0F8FCD0
:1022800000214FF4002000F017FD4FF4817240F25E
:10229000013304486946CDE9002300F005FB03B093
:1022A0005DF804FB0000024000B5012183B0084640
:1022B00000F0DEFC054B06481C226946CDE90023F0
:1022C00000F0F2FA03B05DF804FB00BF0003000168
:1022D000000002402DE9F041174682B001220C4671
:1022E000064603F0E5F91D49D6F80C800546204660
:1022F00000F02AF970B10023B8F5B42F7B8025D007
:1023000012D8174B984525D0B8F5343F02D14FF479
:1023100094733B811349204600F016F900B155B182
:10232000284602B0BDE8F081B8F5342FF2D14FF461
:1023300014733B81EEE701AB0C223946304603F0C3
:10234000B9FA0546284602B0BDE8F0814FF40A7399
:102350003B81DFE740F223133B81DBE79C8F0008E2
:1023600000760200A48F00080B1F00F5005150F802
:10237000042B43F8042F8842F9D17047354A364878
:102380001368002143F0010313609160136823F088
:10239000847323F4803313605060136882B023F495
:1023A00080231360D16000910191136843F480335E
:1023B000136003E0009BB3F5A06F09D0136803F42A
:1023C00000330193009B01330093019B002BF1D05C
:1023D000204B1B6813F4003318BF01230193019BAA
:1023E000012B05D01D4B4FF000629A6002B0704780
:1023F000184B1B491A6C1B4842F080521A640A6839
:1024000042F480420A609A689A609A6842F40042F4
:102410009A609A6842F4A0529A6058601A6842F032
:1024200080721A601A689201FCD50F4A40F2057159
:102430001160996821F003019960996841F00201E7
:10244000A2F580629960936803F00C03082BFAD11F
:10245000C8E700BF003802401030002400ED00E063
:102460000070004008544007003C0240164A936840
:1024700003F00C03042B0CD0082B0CD0134B124A86
:10248000134892681349C2F30312825CD3400B6075
:102490007047114BF3E75368516813F4800F53688A
:1024A00014BF0D4A094AC3F3881301F03F01B2FB80
:1024B000F1F202FB03F3044A5268C2F30142013213
:1024C0005200B3FBF2F3DAE7003802400024F400D4
:1024D000500400206004002000127A00C0EB0013BA
:1024E0009B0010B100BF013BFCD170474EF660234A
:1024F00000FB03F310B100BF013BFCD1704700BFEC
:1025000081B2104B4EF6602001FB00F05A6942F098
:1025100002025A6189B10B4A034600BF013BFCD15C
:10252000516921F002010346516100BF013BFCD11A
:10253000536943F002035361EEE75A6922F0020245
:102540005A61E3E70000024070B50D460646FEF70B
:1025500097FF04462846FEF793FF844209D9241AC0
:10256000024629463019FEF7F9FFB0FA80F040091B
:1025700070BD002070BD00BF30B5ADF50D7D0446C7
:102580004FF40A720D4602A80021FEF733FD2146E2
:10259000012202A803F08CF8044660B901AB4FF4A5
:1025A0008042294602A803F085F90446B0B9019A91
:1025B000B2F5005F06D002A803F0B2FB20460DF58D
:1025C0000D7D30BD294605F50050FEF779FC02A8C7
:1025D00003F0A6FB20460DF50D7D30BD40F6B8306A
:1025E000FFF78EFFF0B58DB004460D463022002176
:1025F0006846FEF7FFFC2146684603F059FC0028B8
:1026000039D11F4E074605F180043146684603F074
:10261000A1FC08BBB37DFBB11A48A4F1800310F8FC
:10262000012F9C4603F8012BA3420CD0002AF6D1BF
:1026300001377E2F04F18004E7D1684603F072FC75
:1026400038460DB0F0BD013700237E2F8CF80030E6
:1026500004F18004D9D1F0E705EBC713002205F59A
:102660007C5503F8802BAB42FBD1684603F05AFC43
:1026700038460DB0F0BD4FF4FA60FFF741FF00BFE0
:10268000642D0120792D0120044B054900221A6098
:102690005A609A60DA605961704700BF003C01409F
:1026A000FFFF7F00837943B31E4B01681A6822EA5B
:1026B000010210B41A605A6822EA01025A600279D3
:1026C00002F1804202F59E321468214311609A683B
:1026D000016822EA01029A60DA6822EA0102DA60FD
:1026E0004279102A14D002F1804303F59E335DF83D
:1026F000044B1A681143196070470379016803F1AC
:10270000804303F59E331A6822EA01021A6070477B
:102710009A685DF8044B0A439A60DA680A43DA6003
:10272000704700BF003C014000234FF4406203604B
:1027300082808371704700BF024A136903431361AB
:10274000704700BF003C0140034B5B69034214BF6C
:1027500001200020704700BF003C0140014B586140
:10276000704700BF003C0140054B1A685B6903409D
:1027700004D0024214BF0120002070471846704761
:10278000003C0140014B5861704700BF003C0140D4
:1027900008B53C4B984222D03B4B984229D03B4B4A
:1027A000984230D03A4B98420FD03A4B984234D0AE
:1027B000394B98423BD0394B984242D0384B9842E3
:1027C00055D0384B984246D008BD0121082000F072
:1027D0008BFABDE808400021082000F085BA0121ED
:1027E000084600F081FABDE808400021012000F011
:1027F0007BBA0121022000F077FABDE808400021F1
:10280000022000F071BA0121042000F06DFABDE849
:1028100008400021042000F067BA0121102000F0D8
:1028200063FABDE808400021102000F05DBA0121E4
:10283000202000F059FABDE808400021202000F0D7
:1028400053BA0121402000F04FFABDE808400021B2
:10285000402000F049BA01214FF4807000F044FAA2
:10286000BDE8084000214FF4807000F03DBA01211E
:10287000802000F039FABDE808400021802000F0F7
:1028800033BA00BF000002400004024000080240CA
:10289000000C0240001002400014024000180240E8
:1028A000001C02400020024000222DE9F04913469E
:1028B0000F684FF0030B04E00133102B02F102020A
:1028C0003BD001249C4034EA0705F5D105680BFA9A
:1028D00002FC25EA0C0505600D79D0F80080E6467B
:1028E0006FEA0C0605FA02FC013D4CEA080C012DCA
:1028F000C0F800C013D885682E4086604D79D0F8A6
:1029000008C0954045EA0C058560456825EA040441
:1029100044608C7945689C40A4B22C434460C468F0
:1029200024EA0E04C460CC79C568944001332C437A
:10293000102BC46002F10202C3D1BDE8F08900BFD0
:102940004FF6FF720023C0E90023704782B04FF4B6
:1029500080330193019B0B430193019BC361C161D0
:10296000019BC361C3690193C369019302B07047BE
:102970000369194214BF012000207047006980B22A
:10298000704700BF4369194214BF012000207047FF
:10299000406980B2704700BF018370474183704730
:1029A0000AB1018370474183704700BF416170479E
:1029B0004369594041617047CB0800EB830001F047
:1029C0000701036A89004FF00F0C0CFA01FC23EA9F
:1029D0000C030362036A8A401A430262704700BF15
:1029E0000A4B0B481A68002142F001021A609960F4
:1029F0001A6822F0847222F480321A6058601A68D1
:102A000022F480221A60D960704700BF003802406B
:102A100010300024024B00229A709870704700BF5B
:102A20000038024082B000230A4A0193136813F46D
:102A3000003F019B03F101030193019B05D0054B6E
:102A40001868C0F3404002B07047B3F5A06FEDD1F5
:102A5000F5E700BF00380240034A136823F0F8038B
:102A600043EAC0031360704700380240014B18600E
:102A7000704700BF00004742084B0022012883F83E
:102A8000702083F8702006D0042803D1052283F833
:102A900070207047704783F870007047003802401C
:102AA000014BC3F8800E70470000474210B4019CF0
:102AB00040EA046008435B0804495DF8044B40EABF
:102AC0008210013B40EA03404860704700380240F2
:102AD000014B1866704700BF00004742034B0907CF
:102AE00041EA8011C3F88410704700BF00380240EB
:102AF000014B9866704700BF00004742014BD86405
:102B0000704700BF00004742034A936823F0EC631C
:102B10000B4318439060704700380240034A9368A3
:102B200023F078430B43184390607047003802400D
:102B3000034A936823F0030303439360704700BF85
:102B400000380240024B986800F00C00704700BF4C
:102B500000380240034A936823F0F0030343936074
:102B6000704700BF00380240034A936823F4E053E3
:102B700003439360704700BF00380240034A9368E4
:102B800023F4604343EAC003936070470038024077
:102B90001E4A936803F00C03042B10B41BD0082BBF
:102BA0001BD01B4B194A036094681A49C4F30314E1
:102BB0000C5DE34043609468C4F382240C5D23FA07
:102BC00004F4846092685DF8044BC2F342328A5C7C
:102BD000D340C3607047104BE4E75368516813F467
:102BE000800F536814BF0C4A094AC3F3881301F0DD
:102BF0003F01B2FBF1F202FB03F3044A5268C2F355
:102C0000014201325200B3FBF2F3CBE7003802403D
:102C10000024F4006404002000127A0000F44073E1
:102C2000B3F5407F09D108498A6820F0704323F446
:102C3000407322F4F81213438B60034B1A6FC0F3F6
:102C40000B0010431867704700380240014BC3F86F
:102C50003C0E704700004742014BC3F8400E7047DE
:102C600000004742014BC3F85C0170470000474237
:102C7000044A136B11B103431363704723EA000343
:102C80001363704700380240044A536B11B1034389
:102C90005363704723EA00035363704700380240D0
:102CA000044A936B11B103439363704723EA000313
:102CB0009363704700380240044A136C11B1034318
:102CC0001364704723EA000313647047003802401E
:102CD000044A536C11B103435364704723EA000361
:102CE0005364704700380240044A136911B103432A
:102CF0001361704723EA00031361704700380240F4
:102D0000044A536911B103435361704723EA000336
:102D10005361704700380240044A936911B103437C
:102D20009361704723EA00039361704700380240C3
:102D3000044A136A11B103431362704723EA000384
:102D40001362704700380240044A536A11B10343CA
:102D50005362704723EA0003536270470038024011
:102D6000044A136D11B103431365704723EA00034E
:102D70001365704700380240044A536D11B1034394
:102D80005365704723EA00035365704700380240DB
:102D9000044A936D11B103439365704723EA00031E
:102DA0009365704700380240044A136E11B1034323
:102DB0001366704723EA0003136670470038024029
:102DC000044A536E11B103435366704723EA00036C
:102DD0005366704700380240044A537B11B10343E5
:102DE0005373704723EA000353737047003802405F
:102DF0004309012B0BD0022B094B0CBF1B6F5B6FE0
:102E000000F01F0023FA00F000F001007047044BAF
:102E10001B6800F01F0023FA00F000F0010070476B
:102E200000380240024A536F43F080735367704783
:102E300000380240034BDB68184214BF0120002019
:102E4000704700BF00380240014B9873704700BFC5
:102E50000038024008B501214FF08050FFF768FFAD
:102E6000BDE8084000214FF08050FFF761BF00BF70
:102E7000014B1862704700BF00000E42034A1368FE
:102E800023F0E00303431360704700BF007000406D
:102E9000014B1861704700BF00000E42014BC3F8A0
:102EA000A000704700000E42014BC3F8A400704719
:102EB00000000E42054A136818B923F480431360DA
:102EC000704743F480431360704700BF00700040B8
:102ED000014B5862704700BF00000E4210B40C4C0A
:102EE0000C4A236823F00303034323601369012979
:102EF00043F00403136108D020BF064A5DF8044B79
:102F0000136923F004031361704730BFF5E700BF76
:102F10000070004000ED00E0074B08491A6842F0DD
:102F200004021A601A6842F002021A600B6943F048
:102F300004030B6130BF70470070004000ED00E0FB
:102F4000034B5B68034214BF01200020704700BFA1
:102F500000700040024A136843EA80031360704720
:102F60000070004008B501214FF48040FFF7ECFEEF
:102F7000BDE8084000214FF48040FFF7E5BE00BFE8
:102F8000014B1860704700BF0038014001F0FC039E
:102F900003F1804303F59C3301F003019A68890033
:102FA0004FF00F0C0CFA01FC22EA0C029A609A68AE
:102FB0008840104398607047014BC3F8DC007047AD
:102FC00000002742014BC3F800047047000027426D
:102FD000024B186AC0F30020704700BF0038014060
:102FE00008B5604B984233D0B0F1804F3AD05E4B79
:102FF000984241D05D4B984220D05D4B984245D0DD
:103000005C4B98424CD05C4B984253D05B4B9842FF
:1030100066D05B4B984257D05A4B98426AD05A4B75
:10302000984273D0594B98427CD0594B984200F04B
:103030008380584B984200F0898008BD012104200C
:10304000FFF776FEBDE8084000210420FFF770BEC0
:1030500001210846FFF778FEBDE808400021012065
:10306000FFF772BE01210846FFF762FEBDE8084087
:1030700000210120FFF75CBE01210220FFF758FE6E
:10308000BDE8084000210220FFF752BE01210820C0
:10309000FFF74EFEBDE8084000210820FFF748BEBC
:1030A00001211020FFF744FEBDE808400021102058
:1030B000FFF73EBE01212020FFF73AFEBDE80840A1
:1030C00000212020FFF734BE01214FF48030FFF7AC
:1030D0003BFEBDE8084000214FF48030FFF734BECE
:1030E00001210220FFF730FEBDE808400021022048
:1030F000FFF72ABE01214FF40030FFF725FEBDE89F
:10310000084000214FF40030FFF71EBE01214FF4AC
:103110008020FFF719FEBDE8084000214FF4802011
:10312000FFF712BE01214020FFF702FEBDE8084074
:1031300000214020FFF7FCBD01218020FFF7F8FDB2
:10314000BDE8084000218020FFF7F2BD01214FF4C7
:103150008070FFF7EDFDBDE8084000214FF480705E
:10316000FFF7E6BD000001400004004000080040F9
:10317000000C00400010004000140040000401401A
:103180000040014000440140004801400018004058
:10319000001C0040002000402E4A0388904210B4DA
:1031A0009BB249D02C4A90421BD0B0F1804F2DD019
:1031B000A2F58032904229D002F58062904225D05B
:1031C00002F5806290423FD0244A904238D1038079
:1031D0000B884A68C262038501235DF8044B838231
:1031E000704723F070034C889BB20A89234323F471
:1031F0004073134303800B884A68C26203858B7A4D
:10320000038601235DF8044B838270474A8823F0CC
:1032100070039BB21343B1F808C04C680A8823F4CA
:1032200040739BB243EA0C0303800123C46202850E
:103230005DF8044B838270474C8823F07003D4E719
:10324000074A9042C3D0E6E74A8823F0700313434D
:10325000E1E700BF00000140000401400010004011
:103260000014004000234FF0FF32426003810360EE
:103270008372704701858282704700BF038823F004
:1032800070031B041B0C0B430380704741627047A3
:10329000C1627047406A7047008D80B2704700BFBE
:1032A000038821B19BB243F002030380704723F0EF
:1032B00002031B041B0C0380704700BF038821B16D
:1032C0009BB243F004030380704723F004031B0404
:1032D0001B0C0380704700BF038821B19BB243F0F1
:1032E00080030380704723F080031B041B0C0380C2
:1032F000704700BF038823F008031B041B0C0380E6
:1033000003889BB20B430380704700BF038823F4FC
:1033100040731B041B0C038003889BB20B43038088
:10332000704700BF038821B19BB243F001030380C3
:10333000704723F001031B041B0C0380704700BF80
:10334000038C23F001031B041B0C0384038CB0F8D3
:1033500004C0028B10B54C88B1F80CE022F0730267
:103360004EEA040E12040C8823F00203120C1B0414
:103370002243144C1B0C43EA0E03A0421FFA8CFCA0
:103380009BB20AD004F58064A04206D08968A0F8F8
:1033900004C002834163038410BDCC89B1F810E0FE
:1033A00023F0080323434C8A2CF4407C4EEA040E9D
:1033B0008C8823F004034CEA0E0C1FFA8CFC234388
:1033C000E4E700BF00000140038C23F010031B045E
:1033D0001B0C0384038CB0F804C0028B10B54C881E
:1033E000B1F80CE022F4E6424EEA040E12040C8816
:1033F00023F02003120C42EA04221B04174C1B0C7E
:1034000043EA0E13A0421FFA8CFC9BB292B20AD080
:1034100004F58064A04206D08968A0F804C0028345
:103420008163038410BDCC89B1F810E023F08003E0
:1034300043EA04134C8A2CF4406C4EEA040E4CEA26
:103440008E0C8C884FF6BF7E03EA0E0E4EEA041EE9
:103450001FFA8CFC1FFA8EF3DEE700BF000001406C
:10346000038C23F480731B041B0C0384038CB0F8BF
:1034700004C0828B10B54C88B1F80CE022F07302C6
:103480004EEA040E12040C8823F40073120C1B0481
:103490002243174C1B0C43EA0E23A0421FFA8CFC5C
:1034A0009BB20AD004F58064A04206D08968A0F8D7
:1034B00004C08283C163038410BDCC89B1F810E0DD
:1034C00023F4006343EA04234C8A2CF4405C4EEA64
:1034D000040E4CEA0E1C8C884FF6FF3E03EA0E0EDB
:1034E0004EEA042E1FFA8CFC1FFA8EF3DEE700BFB3
:1034F00000000140038C23F480531B041B0C038445
:10350000028CB0F804C0838B10B54C88B1F80CE085
:1035100023F4E6434EEA040E1B040C8822F4005206
:103520001B0C43EA042312040E4C120C42EA0E3226
:10353000A0421FFA8CFC92B29BB20AD004F58064C0
:10354000A04206D08968A0F804C083830164028485
:1035500010BD0C8A2CF4804C4CEA841C1FFA8CFCA5
:10356000F0E700BF000001400023C0E90233036020
:1035700083800361704700BF038C4FF0010C0CFA8D
:1035800001FC9BB210B423EA0C0321F0080400F103
:10359000180C03849CB10439C1F34E0148F6FF7046
:1035A00051F80C305DF8044B034041F80C30120226
:1035B00051F80C3092B21A4341F80C207047490878
:1035C0004FF68F7051F80C305DF8044B034041F812
:1035D0000C3051F80C30134341F80C30704700BFE9
:1035E0004163704781637047C163704701647047EE
:1035F000038B23F070031B041B0C0B4303837047E6
:10360000038B23F4E0431B041B0C43EA01239BB20E
:1036100003837047838B23F070031B041B0C0B4345
:1036200083837047838B23F4E0431B041B0C43EA22
:1036300001239BB283837047038B23F008031B0491
:103640001B0C0B4303837047038B23F400631B04A1
:103650001B0C43EA01239BB203837047838B23F047
:1036600008031B041B0C0B4383837047838B23F4D9
:1036700000631B041B0C43EA01239BB28383704746
:10368000038B23F004031B041B0C0B4303837047C1
:10369000038B23F480631B041B0C43EA01239BB2BE
:1036A00003837047838B23F004031B041B0C0B4321
:1036B00083837047838B23F480631B041B0C43EAD2
:1036C00001239BB283837047038B23F080031B0489
:1036D0001B0C0B4303837047038BC3F30E0343EAB6
:1036E00001239BB203837047838B23F080031B0469
:1036F0001B0C0B4383837047838BC3F30E0343EA96
:1037000001239BB283837047038C23F002031B04C5
:103710001B0C0B4303847047038C23F008031B042A
:103720001B0C0B4303847047038C23F020031B0402
:103730001B0C43EA01139BB203847047038C23F0F4
:1037400080031B041B0C43EA01139BB203847047E4
:10375000038C23F400731B041B0C43EA01239BB26C
:1037600003847047038C23F400631B041B0C43EA9F
:1037700001239BB203847047038C23F400531B0482
:103780001B0C43EA01339BB203847047038C4FF058
:10379000010C9BB20CFA01FC23EA0C030384038C9A
:1037A0008A401A4392B20284704700BF038C4FF0E4
:1037B000040C9BB20CFA01FC23EA0C030384038C77
:1037C0008A401A4392B20284704700BF0B8810B53A
:1037D00043BB028CB1F802C08B88B1F808E0C988FD
:1037E00022F001021204120C0284028B92B222F027
:1037F000F302134343EA0E13028C9BB2038393B28A
:1038000023F00A034CEA030343F001030384038B10
:1038100023F00C031B041B0C0383038B9BB2194383
:10382000018310BD042B31D0082B5FD0028CB1F87E
:1038300008C08B884C88C98822F480521204120C6C
:103840000284B0F81CE0028C4FEA0C3C4CEA032CDA
:1038500045F6FF73134040F6FF4243EA043302EAA1
:103860000E029BB242EA0C0243F4805392B282836E
:103870000384838B23F440631B041B0C8383838B9F
:103880009BB243EA01239BB2838310BDB1F804C00D
:103890000B894C88CA884FEA0C2C4CEA033C038CF9
:1038A00023F010031B041B0C0384B0F818E0038CF6
:1038B0009BB223F0A00340F6FF4143EA041301EA60
:1038C0000E019BB241EA0C0143F0100389B201835F
:1038D0000384038B23F440631B041B0C0383038BBF
:1038E0009BB243EA02239BB2038310BD038CB1F861
:1038F00002C08A880C89C98823F480731B041B0CBE
:103900000384838B9BB223F0F3031A43038C9BB293
:1039100023F4206343EA0C2342EA04129BB243F4EB
:10392000807392B282830384838B23F00C031B0485
:103930001B0C8383838B9BB21943818310BD00BF13
:1039400000230122036042600381704770B54E88F6
:103950008C880B88012CB6FA86F24FEA52120CBF03
:103960004FF0020C4FF0010C002B48D1038C0D8955
:10397000C98823F001031B041B0C0384038B9BB237
:1039800023F0F303234343EA0513048C9BB2038320
:10399000A3B223F00A03334343F001030384038BF0
:1039A00023F00C031B041B0C0383038B9BB20B4300
:1039B0000383038C23F010031B041B0C0384048B70
:1039C000038C9BB223F0A00343EA421340F6FF426C
:1039D000224042EA053292B243F0100342EA0C223E
:1039E00002830384038B23F440631B041B0C0383B7
:1039F000038B9BB243EA01239BB2038370BD038C0C
:103A0000B1F808E0C98823F010031B041B0C0384E1
:103A1000058B038C9BB223F0A00343EA0613240218
:103A200040F6FF4644EA0E3435409BB22C4343F047
:103A30001003A4B204830384038B23F440631B04A8
:103A40001B0C0383038B9BB243EA01239BB20383CA
:103A5000038C23F001031B041B0C0384038B048CD5
:103A60009BB223F0F30343EA0E139BB243EA0C0329
:103A70000383A3B223F00A0343EA420343F00103A2
:103A80000384038B23F00C031B041B0C0383038BA5
:103A90009BB21943018370BD406B7047806B7047C8
:103AA000C06B7047006C7047038B23F00C031B0442
:103AB0001B0C0383038B9BB20B430383704700BF34
:103AC000038B23F440631B041B0C0383038B9BB207
:103AD00043EA01239BB20383704700BF838B23F02B
:103AE0000C031B041B0C8383838B9BB20B438383CC
:103AF000704700BF838B23F440631B041B0C83833C
:103B0000838B9BB243EA01239BB28383704700BF40
:103B1000B1F802C00B888A8843EA0C03B1F806C0EA
:103B200013430A8943EA0C03B1F80AC013438A8994
:103B300043EA0C0313439BB2A0F84430704700BF24
:103B4000002303604360836083817047B0F8443092
:103B500039B16FEA43436FEA53439BB2A0F8443054
:103B60007047C3F30E03A0F844307047838821B137
:103B70009BB243F004038380704723F004031B04CB
:103B80001B0C8380704700BF838821B19BB243F038
:103B900001038380704723F001031B041B0C838007
:103BA000704700BF83899BB212B10B43838170477A
:103BB00023EA01038381704781827047038A194297
:103BC00014BF012000207047C94389B201827047A9
:103BD000038A828911EA030092B203D00A4214BF19
:103BE00001200020704700BFC94389B2018270479D
:103BF0001143A0F84810704783899BB212B1194352
:103C00008181704723EA010383817047838821B152
:103C10009BB243F008038380704723F008031B0422
:103C20001B0C8380704700BF038923F007031B042C
:103C30001B0C0381704700BF038923F070031B0432
:103C40001B0C1943018103899BB243F007030381D5
:103C5000704700BF602900B59E462BD0B0F820C049
:103C60002CF0010C4FEA0C4C4FEA1C4CA0F820C081
:103C7000038BB0F820C09BB223F0F30343EA0E138A
:103C80009BB243F0010303831FFA8CF323F00A0372
:103C90001A4342F001020284038923F070031B04DB
:103CA0001B0C1943018103899BB243F00703038175
:103CB0005DF804FB038C23F010031B041B0C03842E
:103CC000B0F818C0038C9BB223F0A00343EA0213A0
:103CD00040F6FF4202EA0C0242EA0E329BB292B276
:103CE00043F0100342F4807202830384D4E700BFE0
:103CF000B0F808C042EA03225FFA8CFC11434CEA98
:103D0000010C1FFA8CFCA0F808C0038923F077038C
:103D10001B041B0C43F0770303817047B0F808C005
:103D200042EA03225FFA8CFC11434CEA010C1FFAB1
:103D30008CFCA0F808C003899BB243F48043038144
:103D4000704700BF038923F070031B041B0C0B4357
:103D500003817047838823F070031B041B0C83804E
:103D600083889BB20B438380704700BF038923F095
:103D700007031B041B0C038103899BB20B430381C4
:103D8000704700BF038923F080031B041B0C0381D1
:103D900003899BB20B430381704700BFB0F808C092
:103DA0000A435FFA8CFC42EA03224CEA020C1FFA37
:103DB0008CFCA0F808C07047B0F808C02CF0070CC5
:103DC0004FEA0C4C4FEA1C4C00B54CEA010E018B3B
:103DD000B0F820C0A0F808E021F4407121F0030100
:103DE0002CF0220C09044FEA0C4C42EA0312090C95
:103DF0004FEA1C4C4CEA020C41F4807141F0010185
:103E00001FFA8CFC0183A0F820C05DF804FB00BF02
:103E1000838821B19BB243F080038380704723F0F5
:103E200080031B041B0C8380704700BFA0F8501058
:103E3000704700BF034B40F0BF6040F40030D860D3
:103E4000704700BF00ED00E0C37823B3184B417802
:103E5000DA688378D243C2F30222C2F1040C5FFA1B
:103E60008CFC01FA0CF14FF00F0C4CFA02FCC9B2B9
:103E70000278104803EA0C030B4300EB020C1B0111
:103E8000DBB251098CF8003302F01F02012393408A
:103E900040F821307047037806485A09012103F0A1
:103EA0001F03203201FA03F340F82230704700BFAD
:103EB00000ED00E000E100E021F06041024B21F064
:103EC0007F0101439960704700ED00E021B1054B8F
:103ED0001A69104318617047024A136923EA000304
:103EE0001361704700ED00E04FF0E02204281369F1
:103EF0000CBF43F0040323F004031361704700BFB9
:103F000010B5012182B0114C0420FEF7D5FE01212D
:103F10000220FEF7ADFE40226946204640F2023301
:103F2000CDE90023FEF7C0FC8023694620460093BC
:103F3000FEF7BAFC204602220621FEF73DFD0222D2
:103F400007212046FEF738FD02B010BD00040240F4
:103F500030B5194C8DB0FFF7D3FF002504A92046DA
:103F60001B230593ADF818500495FFF715F9134B73
:103F7000079307A9122320460993ADF82850FFF7AD
:103F8000DFF901A8FFF7DCFC0D4AADF80C50012366
:103F900001A92046CDE90123FFF718FC204608219E
:103FA000FFF7A8F920466021FFF7CCFE0621204646
:103FB000FFF7DCFE0DB030BD0008004070000100CE
:103FC0000400020010B5044603F042FD2043C0B2D5
:103FD000003818BF012010BD08B503F0C7F901383B
:103FE00018BF0120400008BD2DE9F041ADF5007D6E
:103FF00007460D461646984603F0B8F901283DD10C
:10400000AB0720D008F1FF33DBB2B8F1000F14D0BA
:10401000013305EB43283246694601233846FFF752
:10402000E3FF4FF400720446013628466946154402
:1040300024B9FCF745FF4545EDD1002420460DF598
:10404000007DBDE8F081044643464FF400723146DE
:10405000284603F063FE0028F0D103F0D9FE0546A0
:1040600004F07AFA0128FBD00228E7D02C1E18BFF2
:10407000012420460DF5007DBDE8F0810324204693
:104080000DF5007DBDE8F0812DE9F041ADF5007D35
:1040900007460D461646984603F068F901283DD1BB
:1040A000AB0720D008F1FF33DBB2B8F1000F14D01A
:1040B000013305EB432829464FF400726846154446
:1040C000FCF7FEFE3246012369463846FFF7DCFF67
:1040D0000136044610B94545EDD1002420460DF5C2
:1040E000007DBDE8F081044643464FF4007231463E
:1040F000284604F01FF80028F0D104F0B5F8054672
:1041000004F02AFA0128FBD00228E7D02C1E18BFA1
:10411000012420460DF5007DBDE8F08103242046F2
:104120000DF5007DBDE8F08100207047002070474C
:10413000016879B10A4601E03A2B05D012F8013B3B
:104140001F2BF9D8002070470B78302B02D1023199
:104150008A4202D04FF0FF3070470260F2E700BFA2
:1041600038B50D4640B1036804462BB11A781AB130
:104170008188DA88914203D0092000232B6038BD62
:104180005878FFF729FF10F00100F5D12368F5E713
:1041900038B5C3780BB9002038BD00F13405026B87
:1041A0000446012340782946FFF76EFF80B9216B52
:1041B000636AE269E070CB1A9342ECD2A378022BD7
:1041C000E9D10A44607801232946FFF75DFFE2E761
:1041D000012038BD2DE9F849002407688C758369F2
:1041E000002B5AD0C36A013306460D4657D0FA68F1
:1041F0001088B8B14FF00208A3462CB900F520533F
:104200009BB2B3F5006F5ED34FF4697140EA04408E
:1042100002F0FCFBFF28CBF1FF0342D9012B54D85D
:10422000002304B100232B4400229A75A97DF6696E
:104230000024721E06F10A074FF02E0C04E0281924
:1042400001344372974212D0104612F8013F202BDE
:10425000A0F10700F6D0052B08BFE523B042EED150
:104260000B2CECD82819013480F809C0E7E72B198A
:1042700000225A7249B98CBB3F23AB75012429191E
:1042800000238B75337B03B96B72F37A2B72F3695E
:104290002B60F38AEB80338BAB80BDE8F889214635
:1042A000C5E7C8B1002BBCD005EB0B039875012303
:1042B000FA689B44002432F8080008F1020800283C
:1042C0009BD15B46ADE70446F5E705EB0B03D875DC
:1042D000000A98750223EBE70346A2E76B7A0C46C7
:1042E000002BCCD005F10902A3F14101192908D80E
:1042F000082C307B8CBF1021082108421CBF2033C2
:10430000DBB2537312F8013F0134002BECD1B6E756
:10431000F8B505460C46FFF73BFF38BBAB69A11E5D
:10432000023B99423BBF6B89EE6A064601FB03667E
:1043300005F134072E634FF4007200213846FCF774
:1043400059FE6B891C466BB1002402E001349C428B
:1043500008D201236878A2193946FFF795FE6B89C8
:104360000028F3D0E01A18BF0120F8BD0120F8BDE5
:1043700070B5C37804465BB92378032B23D00022A1
:1043800060781146FFF7D0FE003818BF012070BDDD
:1043900000F13405026B407801232946FFF774FED3
:1043A000002835D1216B636AE269E070CB1A934231
:1043B000E2D2A378022BDFD10A4460780123294698
:1043C000FFF762FED8E72579012DD8D104F1340634
:1043D0004FF4007200213046FCF70CFED4E90432A1
:1043E000C4F81C22226A0B490B48616301324AF669
:1043F0005521A4F83212C4F82032C4F818022B4612
:10440000607822633146FFF73FFE00232371B6E751
:10441000012070BD5252614172724161026B8A4249
:1044200001D10020704770B5C37804460D4600F1F5
:10443000340663B92A46607801233146FFF7D4FD7C
:1044400000281CBF4FF0FF350120256370BD407868
:1044500001233146FFF718FE80B9216B636AE269D8
:10446000E070CB1A9342E5D2A378022BE2D10A4442
:10447000607831460123FFF707FEDBE7012070BDBE
:104480002DE9F0490778022F83B005460E46144601
:1044900007D0032F42D0012F15D0022003B0BDE872
:1044A000F089416A01EB1621FFF7B8FF0028F5D12A
:1044B000760005F1340306F4FF769A199C55C4F38F
:1044C000072454703DE0416A06EB560801EB582181
:1044D000FFF7A4FF0028E1D1F20708F1010B05F175
:1044E0003403C8F3080832D513F80820019302F00A
:1044F0000F0242EA041203F80820696AEF7001EB28
:104500005B212846FFF78AFF0028C7D1019BCBF328
:1045100008021A44C4F30713137012E0416A01EB56
:10452000D611FFF77BFF0028B8D1B60005F13402A1
:1045300006F4FE7624F07044935903F0704323434D
:10454000935101230020EB7003B0BDE8F08903F81C
:104550000840696AEF7001EB5B2128460193FFF781
:104560005DFF00289AD1019BCBF3080B03EB0B02F4
:1045700013F80B30C4F3032423F00F032343137009
:10458000DFE700BF01290ED9F8B5836999420C46CF
:10459000054606D20378022B21D0032B10D0012B25
:1045A00003D00120F8BD01207047416A04EB540795
:1045B00001EB5721FFF732FFF0B14FF0FF30F8BDAC
:1045C000416A01EBD411FFF729FF0028F5D1A400BF
:1045D00004F4FE742544686B20F07040F8BD416A15
:1045E00001EB1421FFF71AFF0028E6D1630003F462
:1045F000FF732B44988EF8BDC7F30803696A2B44F8
:10460000013701EB5721284693F83460FFF706FF86
:104610000028D2D1C7F308072F4497F8343046EA70
:104620000320E3074CBF0009C0F30B00F8BD00BF37
:104630000129F8B505680E4628D9AB698B4225D902
:104640000746114622BB284611E0FFF719FFF0B9D3
:10465000D5E90532911E8B4205D22979013341F00B
:10466000010129716B61A2421FD938682646314683
:10467000FFF788FF0446314600222846ACB1012CE2
:1046800004D0631C13D0AB699E42DED30220F8BD78
:10469000012AFBD09342F9D94FF0FF322846FFF7A9
:1046A000EFFE0028F3D13868E1E70020F8BD0120D3
:1046B000F8BD00BF2DE9F041D0F8008006460F4656
:1046C00081BBD8F810500DBBD8F8143033B3D8F8EC
:1046D000183001252C4607E0012813D001304CD0BA
:1046E000AC421BD0D8F8183001349C4202D3012DC3
:1046F00014D0022430682146FFF744FF0028EBD194
:10470000012C2DD801242046BDE8F081D8F81830BE
:10471000AB42D9D9D8F81420002ADBD10024204696
:10472000BDE8F0814046FFF72DFF01280446E9D996
:10473000421C22D0D8F818308342F0D8D8F8142080
:10474000002AEBD07C1CA34298BF0224306821468B
:10475000FFF718FF0128D5D0431C0ED020BB6CB347
:10476000D8F81830A342CDD94FF0FF322146404649
:10477000FFF786FE30B10128C4D14FF0FF34204648
:10478000BDE8F081F7B9D8E90523023B9A42C8F8A1
:10479000104002D8013AC8F8142098F8043043F0C9
:1047A000010388F80430BAE7D8F81050D8F8183068
:1047B000012D05D9AB4298BF3D468BE7D8F818309C
:1047C0003D4687E7012F9DD0D8F818309F4299D2F7
:1047D000224639464046FFF753FE0028CBD1D2E7A8
:1047E0002DE9F0498369056983B0002B4BD0203552
:1047F000B5F5001F47D2C5F3080806680446B8F1AE
:10480000000F07D0343646442561E661002003B02E
:10481000BDE8F0890F4641690133836169B373894B
:10482000013B13EA552BEDD13046FFF7ABFE0128D3
:1048300001462AD9421C2AD0B369834211D807B352
:1048400061692046FFF736FF014610B301281CD0EE
:10485000431C1CD001903046FFF75AFDB8B9B3692C
:1048600001996161023B0239994203D27289F36A6C
:1048700001FB023BC4F818B0C4E73389B3EB551F02
:10488000C0D80023A3610420C1E70220BFE70120B4
:10489000BDE70720BBE700BF2DE9F04904460568E6
:1048A000A769FF2383B01E46042005F1340B984608
:1048B0003FB32B6B9F420AD02846FFF769FC0028C4
:1048C00056D00023A36103B0BDE8F0892F63E369EC
:1048D000197800295CD0DA7AE52902F03F02A2714A
:1048E00005D02E2903D022F0200008280DD1FF2664
:1048F00000212046FFF774FF0028E2D1A769002FAE
:10490000D7D1002844D10020DDE70F2A4FD14A0635
:104910003BD5226993F80D80E26201F0BF065A7B15
:104920004245E4D15A8B002AE1D119782A4A0096EF
:1049300021F04001013901EB410001EB8001E86801
:10494000019002F10D0C01274FF6FF7E064607E0AD
:10495000FE29CCD826F8110007460131624519D04E
:1049600012F8010B185A002FF2D17045F6D0BEE7AD
:10497000687801233A465946FFF736FB0028A5D050
:104980004FF0FF332B6301209BE7B142AFD1C6E765
:10499000042096E71B78009E5B0605D5FE29A6D865
:1049A000019A002322F81130013EF6B2A0E74546F5
:1049B0006EB903F10B0113F8010BF20142EA560242
:1049C00050FA82F28B42D6B2F5D1AE429BD04FF074
:1049D000FF33E36297E700BF24910008B1F5001FA1
:1049E000F8B5076822D2CA060C461FD18168046157
:1049F0000546E9B17B89B4EB432F4FEA432632D316
:104A0000384607E0012811D9BB6983420ED9A64276
:104A10002AD82868FFF7B6FD431C0146A4EB06041C
:104A2000F0D10120F8BD0023C5E905130220F8BD2F
:104A30003B78022B12D83B89B3EB541FF6D9BB6AE3
:104A4000C5E90513002BF1D0C4F30802343703EB9A
:104A500054231744C5E906370020F8BDBB6A002B74
:104A6000E9D01946C6E7BB69023B8A1E9A42DAD2F0
:104A70007889FB6A02FB0033E2E700BFC16A4B1C86
:104A80002DE9F0410568066904462ED105F1340789
:104A9000D4F818802B6B9845284610D0FFF778FB88
:104AA00020B1042808BF0220BDE8F0816878012306
:104AB00042463946FFF798FA88B9C5F83080E2696E
:104AC000E52101231170EB702369B3424FF000011F
:104AD000204610D2FFF784FE0028D9D0E1E74FF03E
:104AE000FF332B630120BDE8F081FFF777FF00283B
:104AF000CCD0BDE8F0810020BDE8F0812DE9F0497F
:104B0000002187B005680446FFF768FF80B94FF0C1
:104B1000FF334FF0FF08E362464605F1340BA76907
:104B20002B6B9F4208D02846FFF732FB00284CD061
:104B300007B0BDE8F0892F63E2691178002969D0D8
:104B4000D37AE52903F03F00A07103D01B070ED5EF
:104B50000F2829D04FF0FF33E362FF2600212046C3
:104B6000FFF73EFE0028DAD007B0BDE8F0890F2835
:104B70001AD0002E38D094F82B0010F00100E9D1A3
:104B800004F1200102F10B0701E0002BE2D112F841
:104B9000013B11F8016BBA42A3EB0603F5D1002BE0
:104BA000D8D107B0BDE8F08994F82B305F06D5D492
:104BB00048062BD5236992F80D80E36201F0BF010E
:104BC000537B434528D0FF26C8E7687801233A463F
:104BD0005946FFF709FA0028ADD04FF0FF33012006
:104BE0002B6307B0BDE8F08902F10B07114633468D
:104BF00011F8010BDE0146EA530650FA86F6B94277
:104C0000F3B2F5D19845B6D1002091E78E42D7D0C6
:104C1000FF26A3E704208BE7538B002BD3D1167814
:104C2000254F029406F03F06013E06EB460306EBD5
:104C30008306EB680493CDE90085049C059107F198
:104C40000D0301201546CDF80CB011E0FE2E4046B4
:104C500018D801F02BFF834634F8160001F026FF28
:104C6000834506F101060DD1144B40469F420ED0FC
:104C700017F8011B35F801800028E7D14FF6FF72C5
:104C80009045F3D0DDE90085DDE9024B9BE72A463C
:104C9000DDF8008013780599DDF80CB05B06DDE9DE
:104CA000015405D520B1049B33F81630002B8AD16E
:104CB0000139CEB252E700BF2491000831910008BB
:104CC0002DE9F04990F82BC01CF0A0018BB040F00A
:104CD000188103680093DB681A880546002A00F0F3
:104CE000878188461A4632F8021F08F10108002918
:104CF000F9D105F1200696E8070007AC1CF0010F7A
:104D000084E80700019655D11CF0020F009E00F0C8
:104D1000DF80BC4B08F10C0400212846A3FB0434BF
:104D2000FFF75CFEA40801348346002840F0D980D8
:104D3000074607E0B3B15F46FFF752FD8346002800
:104D400040F0D880A9693046FFF768FB83460137F9
:104D500001212846BBF1000F40F0CC80EB691B78A5
:104D6000E52BE7D1BC42E7D1671E40F0D080A969AE
:104D70000098FFF753FB8346C0B920225946E869E3
:104D8000FCF738F9EB690199013B05F12B0211F8A9
:104D9000010B03F8010F9142F9D195F82B30E96925
:104DA00003F018030B73009B0122DA7058460BB016
:104DB000BDE8F089CDE902C84022934CDDF80080BF
:104DC00085F82B20012707AA07CAB446ACE80300E0
:104DD0002CF8022B052F4FEA12428CF8002069D9DB
:104DE0001A88002A66D09C463B46102102F001003A
:104DF00000EB4303D80348BF634001394FEA520236
:104E0000F4D13CF8022F002AEFD10DF11C0E07203F
:104E100001E010465B4603F00F0C0CF1300139291C
:104E200088BF0CF137010F2B0EF8011D00F1FF3286
:104E30004FEA131BEDD802F128036B447E2103F8DF
:104E4000141C1346B2B10238002310E080290BD99C
:104E500001F1200C9F295FFA8CFC02D9BCF11C0FD8
:104E600002D8984206D0013301339A4202D9F15C4C
:104E70002029EBD11F332B4402F128016944072A72
:104E800098BF11F8140CA3F11E01A1EB05018CBF12
:104E9000202001320729587003F10103ECD928467C
:104EA000FFF72CFE834638B90137642F1CD0D8F8A1
:104EB0000C3088E73B46A8E70428DDE902C87FF408
:104EC00075AF1CF0020F2E6885F82BC07FF421AF60
:104ED00000212846FFF782FD0124834600283FF485
:104EE00027AF04287FF462AF4FF0070B58460BB092
:104EF000BDE8F089BBF1040F7FF458AF4FF0070B0A
:104F0000F4E74FF0060B58460BB0BDE8F08929696D
:104F10002846A1EB4711FFF761FD834600287FF487
:104F200045AF019A05F12B0112F8010B4FEACB13A3
:104F300043EA5B0350FA83F38A425FFA83FBF3D1BF
:104F40004FF6FF785E46DDF800B0A9695846FFF7D6
:104F500065FA02460346002851D15FFA87FC0CF13E
:104F6000FF31E869294BDBF80CB0467301EB4104D3
:104F700001EB84010F24CDE9027CA0F80B404283B1
:104F800003F10D0E0BE001339E4535D01A78013345
:104F90009E4520F8028021464FF6FF7211D042450F
:104FA00028D01C783BF81120025507194FEA122C23
:104FB0004C1C87F801C0002AE5D001339E452146EC
:104FC000EDD14245DDE9027C02D03BF814300BB94B
:104FD0004CF0400C009A80F800C00123D3700021EF
:104FE0002846FFF7FDFB034648B9013FABD1BEE6BB
:104FF00090467EE60C46C9E7DDE9027CE8E79B4681
:10500000D4E600BF4FECC44E2110010024910008EB
:105010002DE9F049066887B080460D4611F8013B3E
:105020002F2BFAD05C2BF8D00023C8F808302A7850
:105030001F2A40F274813346D3F80CB00024ABF140
:105040000207802A05F1010310461BD8002A44D12B
:1050500004211A782F2A1D4603F10103F9D05C2A96
:10506000F7D04CB10BEB440232F8023D202B01D0BB
:105070002E2B3ED1013CF7D1ABF80040062007B003
:10508000BDE8F0899F2A03D92032D2B21C2A24D845
:105090006B7828883F2BF1D97E2B03D983F08003CE
:1050A0007C2BEBD840BA023580B24FF4697101F025
:1050B000D7FC0028E2D01F2840F23B812F2800F0C7
:1050C000B2805C2800F0AF807F2808D9FF2CD5D0B3
:1050D00027F8020F01342A78B3E71D46E5E7A74A0F
:1050E000222303E012F8013F002BEFD08342F9D1D5
:1050F000C4E74FF000032BF81430BBF80030202B2E
:1051000040F0CC800BF102030022184633F802CBAA
:10511000BCF1200F174602F10102F6D0023741F030
:105120000301C9B20BEB440301E0013C03D033F8A7
:10513000022D2E2AF9D14FF02033C8F82430C8F8B8
:105140002030C8F827300088002800F012814FF086
:10515000000C0196029508225D4663460E46E34622
:10516000202857D02E2861D0934572D30B2A61D0C6
:10517000BC4200F09A8046F00306F6B2BC4280F0D2
:1051800094809C4698F82030029DE52B04BF0523AF
:1051900088F82030082A3146019E00F08D800CF0FE
:1051A0000C030C2B66D00CF00303032B62D0880792
:1051B0000BD41CF0010F1CBF41F01001C9B21CF050
:1051C000040F1CBF41F00801C9B288F82B104046FB
:1051D000FFF794FC98F82B30002857D15A073FF579
:1051E0004EAF98F80630DB0640F1B880D8F81020B2
:1051F0003178C2F3080206F13403134403295A8BB1
:1052000004BF9B8A42EA0342C8F80820D8F800305D
:105210002A7811E746F00306F6B235F81700013791
:1052200000289DD1ADE72B46002112E7BC42F1D109
:105230000B2AA3D19C4698F82030029D314641F0BC
:105240000301E52B019EC9B2A9D1052388F82030BE
:10525000A5E7BC42ECD07F2835D82B218142DFF86E
:1052600020C105D01CF8011F002964D08142F9D16A
:1052700003963AE041F00201C9B288F82B1040468B
:10528000FFF73CFC98F82B300028A7D004287FF4C7
:10529000F6AE13F0040F08BF0520F0E62E2B58469B
:1052A0004FF001077FF43EAF39E79B00DBB22746A2
:1052B0000B224FF0080BB0E74FEA8C035FFA83FC38
:1052C00003F00C036DE746F00201CDE90432CBB2E6
:1052D000039301F0EBFB4FF4697101F097FBFF289A
:1052E000DDE904320DD8002841D1039941F00301D2
:1052F000CEB25F2008EB0B010BF1010B81F820000F
:105300008BE7511E59452DD908EB0B014FEA102CA4
:10531000039E81F820C00BF1010BC0B2EAE78023A5
:105320000021404688F82B3007B0BDE8F049FFF770
:1053300055BB2B468CE6A0F1410189B2192903D84F
:1053400043F00203C0B2D5E7A0F1610189B2192987
:105350009CBF203843F00103C0B2CBE7052007B063
:10536000BDE8F08946F00306F6B2934655E7039E82
:1053700073E711F0020C3FF422AF26E70891000812
:105380001491000870B54FF0FF360023B142044677
:10539000C370066331D1B4F832224AF655239A42DB
:1053A00029D194F8342002F11803DBB2012B03D980
:1053B000EB2A01D0022070BD94F86A30462B07D149
:1053C00094F86B30412B03D194F86C30542B20D0DF
:1053D00004F1860211498B3400E038B912F8013B20
:1053E00011F8010BA242A3EB0000F6D1003818BF60
:1053F0000120400070BD032070BD0D460A46407874
:10540000012304F13401FEF7EFFD20B126630420EF
:1054100070BD002070BD2563BDE700BF1C91000872
:10542000F0B5002385B00B600E461746FEF780FEF0
:10543000041EC0F2B380854B53F82450002D00F0B9
:10544000BA8035602B7807F0FE0753B16878FEF715
:10545000C3FDC30705D417B1470700F1A980002099
:1054600097E0E0B200232B706870FEF7ABFDC60733
:1054700000F1918017B1440700F19A80002128467D
:10548000FFF780FF02286BD0042800F096800128E7
:1054900098BF00267CD8B5F83F30B3F5007F77D1B0
:1054A000B5F84A1001B9A96D95F84420E961531E79
:1054B000012BAA706CD895F841306B81002B67D016
:1054C000581E184264D1B5F845402C8120075FD1A1
:1054D000B5F8470000B9686DB5F842E0BEF1000FBD
:1054E00056D001FB02F20EEB14171744B8424FD30B
:1054F000C01B9842B0FBF3FC4AD3554B9C4547D8A0
:105500004FF6F5739C4560D840F6F5739C450EEB5D
:1055100006000CF1020337442E62EF62AB61686251
:105520004DD8ACB3024403EB430003F0010303EB9B
:105530005003012003F2FF13B1EB532FAA6227D3CC
:105540004FF0FF33C5E9043380222A71414A4249B2
:105550001388287001339BB21380EB80E9607EE7EB
:105560006C4605F5F97305F2322021461A7902B12D
:105570009A6841F8042B10339842F7D104F11007D0
:1055800054F8046B032066B9BC42F9D1042814D046
:105590000D2005B0F0BD032005B0F0BD0B2005B017
:1055A000F0BD31462846FFF7EDFE0128ECD872E742
:1055B0000A2005B0F0BD0C20EBE70120E9E7002C44
:1055C000E6D002445B000220B4E70EEB06026A62FA
:1055D000B5F85E202E620CF1020337442243EF62DD
:1055E000AB61D5D19B0003F2FF132A6EAA62B1EB27
:1055F000532FCDD3B5F864204FF0FF338021012A1B
:10560000C5E90433297101D003209FE7711C2846A6
:10561000FEF704FF0028F7D1B5F8321228714AF6D8
:1056200055229142F0D16A6B0C4B9A42ECD103F1B6
:10563000FF53D5F8182203F5005320339A4204BFD4
:10564000D5E98732C5E90423DEE700BF80300120B9
:10565000F5FFFF0F7C3001207C2E0120525261416A
:1056600010B584B01446019003A800910391FEF791
:105670005FFD002816DB0D4A52F820300BB10021E7
:105680001970019B0BB10021197042F8203014B938
:10569000204604B010BD002201A96846FFF7C0FEF5
:1056A00004B010BD0B2004B010BD00BF803001203D
:1056B0002DE9F04991B00191002800F0858002F0B9
:1056C0003F07164604463A4603A901A8FFF7A8FE7D
:1056D000054628B100232360284611B0BDE8F089B3
:1056E000DDF80C800199CDF8108004A8FFF790FC3C
:1056F00080B99DF93B30002B6BDB16F01C0F10D0EE
:105700009DF8163013F0110F65D1730740F1A98091
:105710000825DFE716F01C0F01D004285FD00546EE
:10572000D8E79DF81630D90657D4B20701D5D80767
:1057300051D43107DDF82CB001D547F04007D8F837
:105740003030B8F80620C4E9083B98F80030BBF8C0
:105750001A60032B04BFBBF8143046EA0346A66068
:10576000DBF81CB0C4F80CB0002104F12803A280BF
:10577000C4F800804FF4007227746174E1616161C4
:1057800018460093FBF736FCBA06A5D5BBF1000F0F
:10579000A2D0B8F80A20C4F814B0BBEB422F4FEAED
:1057A000422705D862E0431C00F082805F455DD24D
:1057B00031462068FEF7E6FE01280646ABEB070BF4
:1057C000F1D8A061022585E70925284611B0BDE87A
:1057D000F08906257EE707257CE704257AE704A8FB
:1057E000FFF76EFA00289AD147F0080798F80020D2
:1057F000DDF82CB0032A08BFBBF81420BBF81A60F0
:1058000008BF46EA0246FEF791FC20228BF80B20E7
:105810000022ABF81A20CBF80E0098F800100329EC
:1058200008BFABF8142001210022CBF81C2088F817
:105830000310002E81D0D8F83030009304A83146F0
:10584000FEF7F6FE00287FF46AAF00994046FEF7A7
:10585000E5FD731EC8F8103000283FF46EAF054612
:1058600038E73007C2D4DDF82CB068E7CBF3080284
:10587000A661002A3FF430AFD8F81820023E023A61
:1058800096429FD2B8F80A10D8F82C2006FB0122C5
:10589000002A97D002EB5B22E26198F801000099A0
:1058A0000123FEF7A1FB00283FF416AF012511E705
:1058B000A061FBE72DE9F0491E4687B0002388462A
:1058C000336005A905460192FEF74AFC044600280C
:1058D00048D16C7C002C45D195F810B01BF0010B21
:1058E00000F08F806A69EF68019BBF1A9F4228BF52
:1058F0001F46002F36D0CDE902B4B346C2F30801EB
:1059000000293CD1059E7389013B13EA52232DD017
:10591000A869B2690238023A904221D27189F26ACA
:1059200001FB0022E2B19A18B7F5007F019244D240
:10593000EA69019B9A4266D095F91030002B05F177
:10594000280463DB7078019A01232146FEF74CFBA3
:10595000002846D16969019BEB61C1F3080110E0A1
:1059600002246C74204607B0BDE8F089002A41D1BA
:10597000A8680128F4D9421C33D0A861C9E705F111
:1059800028046318C1F50074BC4228BF3C4608F1E6
:10599000FF32181913F8011B02F8011F8342F9D1D5
:1059A000DBF800306A69234422443F1BCBF8003007
:1059B000A0446A61A2D1039CD4E703EB57228A4238
:1059C0004FEA572488BFCC1A7078019AE3B2414657
:1059D000FEF70AFB28B995F91030002B22DB640290
:1059E000DEE7DDF808B05C46012320466B7407B0A3
:1059F000BDE8F089A96928680193FEF7C3FD019B02
:105A0000B7E70724AEE705F12804A3E77078012380
:105A10002146FEF739FB0028E3D12B7C03F07F03FE
:105A20002B748FE7EB69019A9B1AA342D7D208EB3C
:105A30004323013B05F1280205F50A7012F8011B0A
:105A400003F8011F8242F9D1C9E700BF2DE9F049EF
:105A50001E4687B000230F46336005A9044615464D
:105A6000FEF77EFB00284DD1607C00284AD1227CC5
:105A7000910740F1B9806369EB4228BFDD43002DF7
:105A800069D00290B346C3F30802002A3DD1059EB7
:105A9000B6F80A8008F1FF3818EA53280FD1002B16
:105AA00040F09A80A068002800F08880012826D065
:105AB000431C00F08B80A368A061002B6CD094F98C
:105AC0001030002B6DDBA369B269023B023A9342AE
:105AD00015D27189F26A01FB032282B1B5F5007F0C
:105AE00042443CD2E3699342636902D0E1688B424D
:105AF0007CD304F12806E261C3F3080207E0022721
:105B00006774384607B0BDE8F08904F12806C2F58D
